{
  "_format": "hh-sol-artifact-1",
  "contractName": "DigitalIDRegistry",
  "sourceName": "contracts/DigitalIDRegistry.sol",
  "abi": [
    {
      "anonymous": false,
      "inputs": [
        {
          "indexed": true,
          "internalType": "uint256",
          "name": "id",
          "type": "uint256"
        },
        {
          "indexed": false,
          "internalType": "bytes32",
          "name": "contentHash",
          "type": "bytes32"
        },
        {
          "indexed": true,
          "internalType": "address",
          "name": "issuer",
          "type": "address"
        },
        {
          "indexed": false,
          "internalType": "uint256",
          "name": "validTo",
          "type": "uint256"
        }
      ],
      "name": "Issued",
      "type": "event"
    },
    {
      "anonymous": false,
      "inputs": [
        {
          "indexed": true,
          "internalType": "uint256",
          "name": "id",
          "type": "uint256"
        },
        {
          "indexed": true,
          "internalType": "address",
          "name": "issuer",
          "type": "address"
        }
      ],
      "name": "Revoked",
      "type": "event"
    },
    {
      "inputs": [
        {
          "internalType": "uint256",
          "name": "id",
          "type": "uint256"
        }
      ],
      "name": "get",
      "outputs": [
        {
          "components": [
            {
              "internalType": "bytes32",
              "name": "contentHash",
              "type": "bytes32"
            },
            {
              "internalType": "address",
              "name": "issuer",
              "type": "address"
            },
            {
              "internalType": "uint256",
              "name": "issuedAt",
              "type": "uint256"
            },
            {
              "internalType": "uint256",
              "name": "validTo",
              "type": "uint256"
            },
            {
              "internalType": "bool",
              "name": "revoked",
              "type": "bool"
            }
          ],
          "internalType": "struct DigitalIDRegistry.DigitalID",
          "name": "",
          "type": "tuple"
        }
      ],
      "stateMutability": "view",
      "type": "function"
    },
    {
      "inputs": [],
      "name": "idCounter",
      "outputs": [
        {
          "internalType": "uint256",
          "name": "",
          "type": "uint256"
        }
      ],
      "stateMutability": "view",
      "type": "function"
    },
    {
      "inputs": [
        {
          "internalType": "uint256",
          "name": "",
          "type": "uint256"
        }
      ],
      "name": "ids",
      "outputs": [
        {
          "internalType": "bytes32",
          "name": "contentHash",
          "type": "bytes32"
        },
        {
          "internalType": "address",
          "name": "issuer",
          "type": "address"
        },
        {
          "internalType": "uint256",
          "name": "issuedAt",
          "type": "uint256"
        },
        {
          "internalType": "uint256",
          "name": "validTo",
          "type": "uint256"
        },
        {
          "internalType": "bool",
          "name": "revoked",
          "type": "bool"
        }
      ],
      "stateMutability": "view",
      "type": "function"
    },
    {
      "inputs": [
        {
          "internalType": "bytes32",
          "name": "contentHash",
          "type": "bytes32"
        },
        {
          "internalType": "address",
          "name": "subject",
          "type": "address"
        },
        {
          "internalType": "uint256",
          "name": "validTo",
          "type": "uint256"
        }
      ],
      "name": "issue",
      "outputs": [
        {
          "internalType": "uint256",
          "name": "",
          "type": "uint256"
        }
      ],
      "stateMutability": "nonpayable",
      "type": "function"
    },
    {
      "inputs": [
        {
          "internalType": "uint256",
          "name": "id",
          "type": "uint256"
        }
      ],
      "name": "revoke",
      "outputs": [],
      "stateMutability": "nonpayable",
      "type": "function"
    }
  ],
  "bytecode": "0x608060405234801561001057600080fd5b5061091c806100206000396000f3fe608060405234801561001057600080fd5b50600436106100575760003560e01c806320c5429b1461005c5780639507d39a14610078578063e16447c7146100a8578063eb08ab28146100d8578063fac333ac146100f6575b600080fd5b61007660048036038101906100719190610540565b61012a565b005b610092600480360381019061008d9190610540565b610242565b60405161009f9190610659565b60405180910390f35b6100c260048036038101906100bd91906106cc565b6102fd565b6040516100cf919061072e565b60405180910390f35b6100e0610452565b6040516100ed919061072e565b60405180910390f35b610110600480360381019061010b9190610540565b610458565b604051610121959493929190610776565b60405180910390f35b3373ffffffffffffffffffffffffffffffffffffffff1660008083815260200190815260200160002060010160009054906101000a900473ffffffffffffffffffffffffffffffffffffffff1673ffffffffffffffffffffffffffffffffffffffff16146101cd576040517f08c379a00000000000000000000000000000000000000000000000000000000081526004016101c490610826565b60405180910390fd5b600160008083815260200190815260200160002060040160006101000a81548160ff0219169083151502179055503373ffffffffffffffffffffffffffffffffffffffff16817f0819476e55ffbe23df64353d5f7898429609397cc93c44300b058b51648f787860405160405180910390a350565b61024a6104bb565b6000808381526020019081526020016000206040518060a0016040529081600082015481526020016001820160009054906101000a900473ffffffffffffffffffffffffffffffffffffffff1673ffffffffffffffffffffffffffffffffffffffff1673ffffffffffffffffffffffffffffffffffffffff16815260200160028201548152602001600382015481526020016004820160009054906101000a900460ff1615151515815250509050919050565b60006001600081548092919061031290610875565b91905055506040518060a001604052808581526020013373ffffffffffffffffffffffffffffffffffffffff1681526020014281526020018381526020016000151581525060008060015481526020019081526020016000206000820151816000015560208201518160010160006101000a81548173ffffffffffffffffffffffffffffffffffffffff021916908373ffffffffffffffffffffffffffffffffffffffff160217905550604082015181600201556060820151816003015560808201518160040160006101000a81548160ff0219169083151502179055509050503373ffffffffffffffffffffffffffffffffffffffff166001547fe81da9351c6c2bbf6e37a14f683ee732142d8e4dd9002298e6559c456e195b90868560405161043e9291906108bd565b60405180910390a360015490509392505050565b60015481565b60006020528060005260406000206000915090508060000154908060010160009054906101000a900473ffffffffffffffffffffffffffffffffffffffff16908060020154908060030154908060040160009054906101000a900460ff16905085565b6040518060a0016040528060008019168152602001600073ffffffffffffffffffffffffffffffffffffffff16815260200160008152602001600081526020016000151581525090565b600080fd5b6000819050919050565b61051d8161050a565b811461052857600080fd5b50565b60008135905061053a81610514565b92915050565b60006020828403121561055657610555610505565b5b60006105648482850161052b565b91505092915050565b6000819050919050565b6105808161056d565b82525050565b600073ffffffffffffffffffffffffffffffffffffffff82169050919050565b60006105b182610586565b9050919050565b6105c1816105a6565b82525050565b6105d08161050a565b82525050565b60008115159050919050565b6105eb816105d6565b82525050565b60a0820160008201516106076000850182610577565b50602082015161061a60208501826105b8565b50604082015161062d60408501826105c7565b50606082015161064060608501826105c7565b50608082015161065360808501826105e2565b50505050565b600060a08201905061066e60008301846105f1565b92915050565b61067d8161056d565b811461068857600080fd5b50565b60008135905061069a81610674565b92915050565b6106a9816105a6565b81146106b457600080fd5b50565b6000813590506106c6816106a0565b92915050565b6000806000606084860312156106e5576106e4610505565b5b60006106f38682870161068b565b9350506020610704868287016106b7565b92505060406107158682870161052b565b9150509250925092565b6107288161050a565b82525050565b6000602082019050610743600083018461071f565b92915050565b6107528161056d565b82525050565b610761816105a6565b82525050565b610770816105d6565b82525050565b600060a08201905061078b6000830188610749565b6107986020830187610758565b6107a5604083018661071f565b6107b2606083018561071f565b6107bf6080830184610767565b9695505050505050565b600082825260208201905092915050565b7f4e6f742069737375657200000000000000000000000000000000000000000000600082015250565b6000610810600a836107c9565b915061081b826107da565b602082019050919050565b6000602082019050818103600083015261083f81610803565b9050919050565b7f4e487b7100000000000000000000000000000000000000000000000000000000600052601160045260246000fd5b60006108808261050a565b91507fffffffffffffffffffffffffffffffffffffffffffffffffffffffffffffffff82036108b2576108b1610846565b5b600182019050919050565b60006040820190506108d26000830185610749565b6108df602083018461071f565b939250505056fea26469706673582212202b85695ab9da943cc643a967df123231dd04b48be77ceff8f2a44d131e594eea64736f6c63430008140033",
  "linkReferences": {},
  "deployedLinkReferences": {}
}